:020000040800F2
:10000000A805002001010008811F0008DD1B000871
:100010007D1F00088B0600089D27000800000000D7
:10002000000000000000000000000000C5200008E3
:100030008F0600080000000099200008C720000873
:100040001B0100081B0100081B0100081B01000820
:100050001B0100081B0100081B0100081B01000810
:100060001B0100081B0100081B0100081B01000800
:100070001B0100081B0100081B0100081B010008F0
:100080001B0100081B0100081B0100081B010008E0
:100090001B0100081B0100081B0100081B010008D0
:1000A0001B010008BD2100081B0100081B010008FE
:1000B0001B0100081B0100081B0100081B010008B0
:1000C0001B0100081B0100081B0100081B010008A0
:1000D0001B0100087D2700081B0100088D27000870
:1000E0001B0100081B0100081B010008DFF80CD0F1
:1000F00000F098FA00480047B9320008A80500202F
:100100000648804706480047FEE7FEE7FEE7FEE7B1
:10011000FEE7FEE7FEE7FEE7FEE7FEE765210008F3
:10012000ED000008202A04DB203A21FA02F0002129
:10013000704721FA02F3D040C2F1200291400843F7
:1001400019467047421C10F8011B0029FBD1801A88
:1001500070472DE9FE4F81EA030404F0004421F0CA
:10016000004100944FF0000B23F0004350EA0104DB
:100170005ED052EA03045BD0C3F30A54C1F30A55BC
:100180002C44A4F2F3340194A0FB0254C1F31301F4
:1001900041F48011C3F3130343F4801301FB0244C1
:1001A00000FB034E840A970A44EA815447EA8357C6
:1001B000A4FB076802958D0A05FB07854FEA932C7F
:1001C00004FB0C542705029D4FEA065847EA1637F0
:1001D000B5EB08056EEB070C870E920E47EA811708
:1001E00042EA8312A7FB0201B6EB0B0164EB0004A9
:1001F0002B0D43EA0C335E1844EB1C50DA46514693
:10020000E7FB0201C5F313044FEA0B3343EA14532F
:100210004FEA0432019C43EA0603A4F10C04029461
:10022000009CCDE900B400F0D8F803B0BDE8F08F31
:1002300000200146F9E72DE9F04D81EA030404F0BE
:10024000004B21F0004514464FF0000A23F0004116
:1002500050EA050220D054EA01021DD0C5F30A5726
:100260000246C5F31303C1F31300C1F30A5640F469
:10027000801543F48013A7EB0608101BD64608F23E
:10028000FD3873EB050002D308F1010801E0921874
:100290005B41B8F1000F03DA00200146BDE8F08DA4
:1002A00000204FF48011064684460EE0171B73EBC6
:1002B000050705D3121B63EB050306434CEA010C4B
:1002C00049084FEA300092185B4150EA0107EDD12E
:1002D00052EA030012D082EA040083EA05010843CF
:1002E00005D0101BAB4106D20122002306E00022FC
:1002F0004FF0004302E06FF0010253101AEB0600CA
:100300004CEB085110EB0A0041EB0B01BDE8F04D3E
:1003100000F054B80EB540F2334102910021CDE90E
:1003200000110A460B4600F058F803B000BD30B586
:100330000B46014600202022012409E021FA02F5A3
:100340009D4205D303FA02F5491B04FA02F528443D
:10035000151EA2F10102F1DC30BD2DE9F05F05466A
:10036000002092469B4688460646814640241BE074
:100370002846414647462246FFF7D4FE53465A4692
:10038000C01A914110D311461846224600F05CF97C
:100390002D1A67EB01084F4622460120002100F08C
:1003A00053F917EB00094E41201EA4F10104DFDCD4
:1003B000484631462A464346BDE8F09F10B5141E14
:1003C00073F1000408DA401C41F1000192185B410E
:1003D0001A4301D120F0010010BD2DE9F04D9246E5
:1003E0009B4611B1B1FA81F202E0B0FA80F22032FC
:1003F000904600F029F904460F4640EA0A0041EA17
:100400000B0153465A46084313D0114653EA0100E4
:1004100019D0C8F140025046FFF784FE05460E464B
:1004200050465946424600F00FF9084305D00120D6
:1004300004E020463946BDE8F08D0020054346EA39
:10044000E0762C4337430A986305E40AA0EB0800E2
:100450000022FD0A44EA47540A3002D50020014632
:10046000E9E7010510196941DDE90845001969410D
:10047000BDE8F04DA2E72DE9FE4F804681EA03007A
:10048000C00F0C46009021F0004123F00045B8EB6E
:100490000200A94105D24046214690461C460B4623
:1004A000024623F00040104347D0270DC7F30A004F
:1004B000C3F30A510290401A019040286BDAC3F34B
:1004C000130040F4801B0098924620B10023D2EB29
:1004D000030A63EB0B0B01985946C0F140025046EA
:1004E00000F0B2F806460D4650465946019A00F013
:1004F000BAF810EB08006141002487EA115284EA3F
:10050000E7731A4340D0009A62B3019A012A4FEA76
:10051000075215DC001B61EB02014FF0004202EABA
:100520000752CDE90042001C41F5801132462B46AE
:10053000FFF753FF03B0BDE8F08F40462146F9E7CF
:10054000001B61EB0201001C41F5801300185B41A8
:100550002018A2F5001747EB030140EAD570B61941
:100560006D4111E06D084FEA360645EAC0754FEA65
:100570000752001B61EB0201001C41F58011490884
:100580004FEA30000019514132462B4603B0BDE816
:10059000F04FFFF713BF0098012240000023D0EB7B
:1005A000020263EBE073009821464FEAE074B8EB77
:1005B000000061EB0401E9E783F000435BE781F0B1
:1005C000004158E7C1F30A52C1F3130140F2FF336F
:1005D00041F480119A4202DA00200146704740F24D
:1005E00033439A42A2F2334202DC5242FFF79ABDF1
:1005F00000F02AB830B5041E71F1000404DB4FF09E
:100600000044404264EB0101141E73F1000405DB59
:100610001C464FF00043524263EB0403994208BF6B
:10062000904230BD064C074D06E0E06840F0010303
:1006300094E8070098471034AC42F6D3FFF75AFD10
:1006400088390008A8390008202A04DB203A00FA7B
:1006500002F1002070479140C2F1200320FA03F319
:10066000194390407047202A06DBCB17203A41FA05
:1006700002F043EAE07306E041FA02F3D040C2F12F
:100680002002914008431946704700BFFEE77047BB
:1006900070B50446002594F82100022803D00420F8
:1006A000A063012548E02068006820F00E00216862
:1006B00008602068006820F00100216808601F4978
:1006C0002068884201D1012026E01C4914312068AD
:1006D000884201D110201FE0184928312068884243
:1006E00001D1801518E015493C312068884201D1BC
:1006F000801411E0114950312068884202D14FF432
:10070000803009E00D4964312068884202D14FF4FD
:10071000801001E04FF080700849083948600120DE
:1007200084F8210000BF002084F8200000BF606B27
:1007300010B12046616B8847284670BD0800024012
:1007400070B5044600F0A4F906462546681C10B1B1
:1007500004480078054400BF00F09AF9801BA842C5
:10076000FAD370BD540000202DE9F8470346002459
:10077000002000258446002700226EE14FF001088A
:1007800008FA02F4D1F8008008EA0400A0427DD102
:10079000DFF8D0A2D1F80480A8EB0A09D0453AD0FE
:1007A00014DCB8F1030F50D009DCB8F1000F31D0E0
:1007B000B8F1010F1CD0B8F1020F49D120E0B8F117
:1007C000110F18D0B8F1120F42D11EE0B9F5881FF1
:1007D00025D006DCB9F5803F20D0B9F5801F37D190
:1007E0001AE0B9F5001F18D0B9F5041F30D117E091
:1007F000D1F80CC02DE0D1F80C8008F1040C28E0F1
:10080000D1F80C8008F1080C23E0D1F80C8008F135
:100810000C0C1EE000BF00BF00BF00BF00BF00BF48
:10082000D1F80880B8F1000F02D14FF0040C0BE0B2
:10083000D1F80880B8F1010F03D14FF0080C1C610A
:1008400002E04FF0080C5C6103E04FF0000C00E0A8
:1008500000BF00BFFF2801D8984601E003F104085B
:100860004646FF2802D84FEA820803E0A2F10808B2
:100870004FEA88084746D6F800804FF00F0909FA7A
:1008800007F928EA09080CFA07F900E088E048EAC5
:100890000908C6F80080D1F8048008F08058B8F143
:1008A000805F7DD100BFDFF8C081D8F8188048F0A4
:1008B0000108DFF8B491C9F81880C846D8F8188044
:1008C00008F00108CDF8008000BF00BF4FEAB9383A
:1008D0004FEA920958F829504FEA82784FEA18797E
:1008E0004FF00F0808FA09F825EA0805DFF87C81BF
:1008F000434502D14FF0000816E0DFF8748143450C
:1009000002D14FF001080FE0DFF86881434502D1C2
:100910004FF0020808E0DFF86081434502D14FF054
:10092000030801E04FF004084FEA82794FEA197991
:1009300008FA09F848EA0505DFF840814FEA92090C
:1009400048F82950D1F8048008F48038B8F5803F81
:100950000AD1DFF82C81D8F8008048EA0008DFF8D7
:100960002091C9F8008009E0DFF81481D8F80080F0
:1009700028EA0008DFF80891C9F80080D1F804805F
:1009800008F40038B8F5003F10D1DFF8F48008F122
:100990000408D8F8008048EA0008DFF8E49000E096
:1009A0005AE009F10409C9F800800DE0DFF8D080B1
:1009B00008F10408D8F8008028EA0008DFF8C090A1
:1009C00009F10409C9F80080D1F8048008F48018FE
:1009D000B8F5801F0ED1DFF8A88008F10808D8F814
:1009E000008048EA0008DFF8989009F10809C9F882
:1009F00000800DE0DFF8888008F10808D8F8008052
:100A000028EA0008DFF8789009F10809C9F80080A1
:100A1000D1F8048008F40018B8F5001F0ED1DFF8F3
:100A2000608008F10C08D8F8008048EA0008DFF878
:100A3000509009F10C09C9F800800DE0DFF8408002
:100A400008F10C08D8F8008028EA0008DFF8309098
:100A500009F10C09C9F80080521C102AFFF48EAE6F
:100A6000BDE8F887000011100010024000080140A6
:100A7000000C01400010014000140140080001403A
:100A8000000401400AB1016101E00B0403617047F9
:100A900001480068704700004C00002003480068CF
:100AA0000349097808440149086070474C00002058
:100AB0005400002010B50848006840F010000649B6
:100AC0000860032000F0D0F8002000F007F800F0E4
:100AD0002BF8002010BD00000020024070B5044635
:100AE0000E4800784FF47A71B1FBF0F00C490968B8
:100AF000B1FBF0F5284600F042FC08B1012070BDC2
:100B0000102C07D200222146501E00F06EF8054836
:100B1000046001E00120F2E70020F0E7540000202B
:100B2000480000205000002008B500BF264880691A
:100B300040F00100244988610846806900F0010006
:100B4000009000BF00BF00BF0846C06940F0805061
:100B5000C8610846C06900F08050009000BF00BF27
:100B6000032000F081F8002211466FF00B0000F026
:100B70003CF8002211466FF00A0000F036F800221F
:100B800011466FF0090000F030F800221146501FA6
:100B900000F02BF800221146101F00F026F800226A
:100BA0001146901E00F021F800221146501E00F060
:100BB0001CF800BF0549486820F0E06040F0007074
:100BC000486000BF08BD0000001002400000014066
:100BD00000BF00F01F02012191404209920002F182
:100BE000E022C2F8001100BF70472DE9F05F804697
:100BF0000D461646002701F0C5F9074639462A4634
:100C0000334601F00700C0F1070ABAF1040F02D918
:100C10004FF0040A01E0C0F1070AD14600F1040ACE
:100C2000BAF1070F02D24FF0000A01E0A0F1030A67
:100C3000D4464FF0010A0AFA09FAAAF1010A0AEAAF
:100C4000020A0AFA0CFA4FF0010B0BFA0CFBABF19B
:100C5000010B0BEA030B4AEA0B042146404601F064
:100C600099F9BDE8F09F000000BF00F00702064BB5
:100C700019684FF6FF031940044B0B4343EA022166
:100C8000014B196000BF70470CED00E00000FA0551
:100C900070B504460D4600266248006800F0070063
:100CA000A8420ED25F48006820F0070028435D4943
:100CB00008600846006800F00700A84201D0012043
:100CC00070BD207800F00200022807D15648406825
:100CD00020F0F000A168084353494860207800F0F4
:100CE000010000285DD06068012806D14E480068E8
:100CF00000F4003090B90120E2E76068022806D1D4
:100D00004948006800F0007040B90120D8E7464823
:100D1000006800F0020008B90120D1E742484068AD
:100D200020F00300616808433F494860FFF7B0FEC8
:100D300006466068012810D108E0FFF7A9FE801B75
:100D400041F28831884201D90320B9E7364840682A
:100D500000F00C000428F0D123E06068022810D1D4
:100D600008E0FFF795FE801B41F28831884201D9E7
:100D70000320A5E72C48406800F00C000828F0D1BB
:100D80000FE008E0FFF784FE801B41F288318842C3
:100D900001D9032094E72448406800F00C000028A3
:100DA000F0D12048006800F00700A8420ED91D4885
:100DB000006820F0070028431A49086008460068C8
:100DC00000F00700A84201D0012079E7207800F068
:100DD0000400042807D11448406820F4E060E1686A
:100DE000084311494860207800F00800082808D11D
:100DF0000D48406820F46050216940EAC1000A496A
:100E0000486000F03DF808494968C1F30311074AFA
:100E1000515CC840064908600020FFF75FFE0020D3
:100E20004EE7000000200240001002407039000828
:100E3000480000200148006870470000480000207A
:100E400000B5FFF7F7FF04494968C1F30221034ADF
:100E5000515CC84000BD000000100240803900080D
:100E600000B5FFF7E7FF04494968C1F3C221034A0F
:100E7000515CC84000BD00000010024080390008ED
:100E8000F0B585B00FF26C0C9CE8E01001A8A0E86A
:100E9000E0101CA52D6800950021002200230024ED
:100EA0000020194D696801F00C05F5B1042D02D040
:100EB000082D19D101E0154819E001ADC1F38346B1
:100EC000AC5D01F4803555B10F4D6D68C5F34045FB
:100ED0001DF805200D4D6543B5FBF2F302E00C4D06
:100EE00004FB05F3184602E000BF084800BF00BF3E
:100EF00005B0F0BD02030405060708090A0B0C0D36
:100F00000E0F1010010200000010024000127A00C3
:100F100000093D00F8B504460025207800F00100E6
:100F2000002878D0F848406800F00C0004280CD065
:100F3000F548406800F00C00082811D1F2484068DC
:100F400000F48030B0F5803F0AD1EF48006800F42B
:100F5000003000285FD0606800285CD10120F8BD17
:100F600000BF6068B0F5803F06D1E748006840F4F4
:100F70008030E549086028E0606858B9E2480068B8
:100F800020F48030E04908600846006820F48020A2
:100F900008601AE06068B0F5A02F0BD1DA4800684D
:100FA00040F48020D84908600846006840F480304A
:100FB00008600AE0D448006820F48030D249086014
:100FC0000846006820F48020086000BF606888B18F
:100FD000FFF75EFD054606E0FFF75AFD401B64285B
:100FE00001D90320BBE7C848006800F4003000289E
:100FF000F2D010E0FFF74CFD054606E0FFF748FD94
:10100000401B642801D90320A9E7BF48006800F409
:1010100000300028F2D1207800F00200022857D1D9
:10102000B948406800F00C0050B1B748406800F083
:101030000C00082818D1B448406800F4803098B9F2
:10104000B148006800F0020020B12069012801D0F9
:10105000012084E7AC48006820F0F800616940EAAC
:10106000C100A949086033E02069E8B10120A7491F
:101070000860FFF70DFD054606E0FFF709FD401B80
:10108000022801D903206AE79F48006800F00200A7
:101090000028F2D09C48006820F0F800616940EA1E
:1010A000C1009949086013E0002098490860FFF7E3
:1010B000EFFC054606E0FFF7EBFC401B022801D9D8
:1010C00003204CE79048006800F002000028F2D1AD
:1010D000207800F0080008282DD1A069B8B10120BF
:1010E0008B490860FFF7D4FC054606E0FFF7D0FC0B
:1010F000401B022801D9032031E78348406A00F0F1
:1011000002000028F2D0012000F0C8FF13E0002008
:101110007F490860FFF7BCFC054606E0FFF7B8FC16
:10112000401B022801D9032019E77748406A00F0E4
:1011300002000028F2D1207800F00400042873D1C6
:1011400000267148C06900F0805070B900BF6E4839
:10115000C06940F080506C49C8610846C06900F021
:101160008050009000BF00BF01266A48006800F46C
:101170008070B0B96748006840F4807065490860C5
:10118000FFF786FC054606E0FFF782FC401B64285B
:1011900001D90320E3E65F48006800F4807000286E
:1011A000F2D000BFE068012806D15748006A40F03D
:1011B00001005549086227E0E06858B95248006AC2
:1011C00020F00100504908620846006A20F004003F
:1011D000086219E0E06805280BD14B48006A40F02E
:1011E0000400494908620846006A40F001000862AC
:1011F0000AE04548006A20F00100434908620846B9
:10120000006A20F00400086200BFE068A0B1FFF7A8
:101210003FFC054609E0FFF73BFC401B41F28831EB
:10122000884202D903209AE622E03748006A00F09B
:1012300002000028EFD012E0FFF72AFC054608E084
:10124000FFF726FC401B41F28831884201D9032078
:1012500085E62D48006A00F002000028F0D1012E3A
:1012600005D12948C06920F080502749C86100BFD6
:10127000E069C8B32448406800F00C00082860D03A
:10128000E069022848D1002020490866FFF700FCE9
:10129000054606E0FFF7FCFB401B022801D90320AE
:1012A0005DE61948006800F000700028F2D1206A5D
:1012B000B0F5803F07D11448406820F40030A168A1
:1012C000084311494860D4E9080108430E494968B8
:1012D00021F4741108430C49486001200B49086649
:1012E000FFF7D6FB054607E02DE0FFF7D1FB401BDB
:1012F000022801D9032032E60348006800F000709C
:101300000028F2D01FE0000000100240000042421E
:10131000800442420070004000200C490866FFF73C
:10132000B7FB054606E0FFF7B3FB401B022801D9D7
:10133000032014E60648006800F000700028F2D18F
:1013400001E001200BE6002009E600000000424217
:1013500000100240042808D14FF0E021096941F053
:1013600004014FF0E022116107E04FF0E02109692C
:1013700021F004014FF0E02211617047704770B511
:1013800004462546681EB0F1807F01D301200FE09E
:10139000681E4FF0E02148610F214FF0FF3000F050
:1013A000F9FD00204FF0E02188610720086100204E
:1013B00070BD10B5FFF7E2FF10BD704770470246E1
:1013C00000BF92F83C00012801D1022070470120A3
:1013D00082F83C0000BF022082F83D00106840689F
:1013E00020F0700013685860106840680B6818435C
:1013F000136858601068806820F080001368986057
:10140000106880684B68184313689860012082F860
:101410003D0000BF002082F83C0000BF00BFD5E7C0
:1014200010B504460CB9012010BD94F83D0028B950
:10143000002084F83C00204600F00CF8022084F8DC
:101440003D00211D206800F0C1FE012084F83D0010
:101450000020E9E738B504460D492068884215D1D7
:1014600000BF0C48806940F400600A498861084662
:10147000806900F40060009000BF00BF00221146A8
:101480001920FFF7B2FB1920FFF7A2FB38BD0000BF
:10149000002C01400010024001460868C06840F07E
:1014A00001000A68D0600868006840F001000A681E
:1014B0001060002070472DE9F04104460D460026DB
:1014C00000BF94F83C00012802D10220BDE8F08161
:1014D000012084F83C0000BF022084F83D00206811
:1014E000866826F0770626F47F462068866028689E
:1014F00050283BD00CDC202860D004DC002853D0DE
:10150000102865D155E030285DD0402860D141E0F9
:10151000602835D070280DD0B0F5805F03D0B0F5CD
:10152000005F55D115E02068806820F00700216831
:1015300088604EE0D5E902136A68206800F080FEFA
:101540002068866826F0770646F077062068866071
:101550003FE0D5E902136A68206800F071FE206858
:10156000806840F480402168886032E0EA686968F9
:10157000206800F07BFE5021206800F06DFE28E01E
:10158000EA686968206800F086FE6021206800F043
:1015900063FE1EE0EA686968206800F067FE40218B
:1015A000206800F059FE14E00021206800F054FE8D
:1015B0000FE01021206800F04FFE0AE02021206893
:1015C00000F04AFE05E03021206800F045FE00E012
:1015D00000BF00BF012084F83D0000BF002084F858
:1015E0003C0000BF00BF71E7704710B5044620689B
:1015F0000069C0F34000D8B12068C068C0F3400063
:10160000B0B16FF0020021680861012020772068E6
:10161000806900F0030018B12046FFF7E5FF05E000
:10162000204600F0ADF8204600F0ABF8002020770F
:1016300020680069C0F38000D8B12068C068C0F39A
:101640008000B0B16FF004002168086102202077AB
:101650002068806900F4407018B12046FFF7C4FF8D
:1016600005E0204600F08CF8204600F08AF80020C3
:10167000207720680069C0F3C000D8B12068C06836
:10168000C0F3C000B0B16FF0080021680861042009
:1016900020772068C06900F0030018B12046FFF7EA
:1016A000A3FF05E0204600F06BF8204600F069F843
:1016B0000020207720680069C0F30010D8B12068AE
:1016C000C068C0F30010B0B16FF01000216808616D
:1016D000082020772068C06900F4407018B12046C7
:1016E000FFF782FF05E0204600F04AF8204600F0B0
:1016F00048F8002020772068006900F0010058B108
:101700002068C06800F0010030B16FF0010021686E
:101710000861204600F036F820680069C0F3C01068
:1017200058B12068C068C0F3C01030B16FF08000BD
:10173000216808612046FFF740FE20680069C0F379
:10174000801058B12068C068C0F3801030B16FF0CD
:10175000400021680861204600F015F82068006903
:10176000C0F3401058B12068C068C0F3401030B1D9
:101770006FF02000216808612046FFF71FFE10BDB2
:101780007047704770477047704700002DE9F04779
:101790000446206805682068C668206847694FF0DD
:1017A0000008C14605F00F08B8F1000F0AD105F096
:1017B000200038B106F0200020B1204600F03CFEA9
:1017C000BDE8F087B8F1000F6DD007F0010018B93F
:1017D00006F49070002866D005F0010030B106F4E0
:1017E000807018B1E06B40F00100E06305F0040088
:1017F00030B107F0010018B1E06B40F00200E06387
:1018000005F0020030B107F0010018B1E06B40F0C4
:101810000400E06305F0080030B107F0010018B1E2
:10182000E06B40F00800E063E06B68B305F0200077
:1018300028B106F0200010B1204600F0FDFD206820
:101840004069C0F38019E06B00F0080010B9B9F1ED
:10185000000F22D0204600F0CFFD2068406900F044
:101860004000B0B12068406920F040002168486124
:10187000606B50B11748616B4863606BFEF708FFFF
:1018800010B1606B416B88470CE02046FFF77CFF8E
:1018900008E02046FFF778FF04E02046FFF774FFDA
:1018A0000020E0638CE705F0800030B106F0800096
:1018B00018B1204600F0F8FE82E705F0400030B194
:1018C00006F0400018B1204600F0A6FD78E700BF02
:1018D00076E70000E523000810B504460CB90120A6
:1018E00010BDA06900B100E000BF94F8390028B92C
:1018F000002084F83800204600F028F8242084F8DE
:1019000039002068C06820F400502168C860204673
:1019100000F0E6FD2068006920F49040216808612D
:101920002068406920F02A00216848612068C0686A
:1019300040F400502168C8600020E063202084F853
:10194000390084F83A000020CAE7000010B586B0DC
:1019500004462F49206888422AD100BF2D4880695B
:1019600040F480402B4988610846806900F480403B
:10197000019000BF00BF4815029002200390032091
:10198000059002A92448FEF7EFFE4FF48060029014
:1019900000200390049002A91F48FEF7E5FE0022F4
:1019A00011462520FFF721F92520FFF711F92DE039
:1019B0001A492068884229D100BF1648C06940F4FE
:1019C00080201449C8610846C06900F48020019055
:1019D00000BF00BF0815029002200390032005906D
:1019E00002A90F48FEF7C0FE4FF4006002900020ED
:1019F0000390049002A90A48FEF7B6FE00221146A1
:101A00002720FFF7F2F82720FFF7E2F806B010BD15
:101A1000003801400010024000080140004800402A
:101A2000000C01402DE9F84304460D4616461F46BA
:101A30004FF0000994F83A00202860D105B116B99A
:101A40000120BDE8F88300BF94F83800012801D1D7
:101A50000220F6E7012084F8380000BF0020E06390
:101A6000222084F83A00FFF713F88146A685E68520
:101A700039E0E08D401EE085A068B0F5805F1BD1A5
:101A80004B46002220212046009700F041FE08B17D
:101A90000320D6E7A846206938B920684068C0F31B
:101AA0000800A8F80000AD1C1DE020684068C0B226
:101AB000A8F800006D1C16E04B46002220212046AD
:101AC000009700F025FE08B10320BAE7206920B98D
:101AD0002068406805F8010B05E02068406800F0C8
:101AE0007F0005F8010BE08D0028C2D1202084F88A
:101AF0003A0000BF002084F8380000BFA1E70220B0
:101B00009FE770472DE9F84304460D4616461F46E9
:101B10004FF0000994F8390020285CD105B116B9BE
:101B20000120BDE8F88300BF94F83800012801D1F6
:101B30000220F6E7012084F8380000BF0020E063AF
:101B4000212084F83900FEF7A3FF8146A684E684AD
:101B50002BE0E08C401EE084A068B0F5805F16D1D9
:101B60004B46002280212046009700F0D1FD08B1AD
:101B70000320D6E7A846B8F80000C0F308002168A3
:101B80004860206908B9AD1C0FE06D1C0DE04B46A4
:101B9000002280212046009700F0BAFD08B1032002
:101BA000BFE715F8010B21684860E08C0028D0D110
:101BB0004B46002240212046009700F0A9FD08B1C5
:101BC0000320AEE7202084F8390000BF002084F80D
:101BD000380000BFA5E70220A3E7704700BFFEE77B
:101BE0001FB500224AF6D3111F48FEF74BFF4AF6F5
:101BF000D3100090012001900220039069461A48FA
:101C0000FEF7B2FD002249F2D7311848FEF73AFF3D
:101C100049F2D730009001200190022003906946DC
:101C20001248FEF7A1FD00224FF664611048FEF74E
:101C300029FF4FF66460009001200190022003907C
:101C400069460B48FEF790FD002207210948FEF780
:101C500019FF07200090012001900220039069469F
:101C60000448FEF781FD1FBD00080140000C014043
:101C700000100140001401402DE9FC413548008866
:101C8000FEF748FB06460022334BFEF762FA044695
:101C90000022324BFEF7CFFA314A03C231480088A6
:101CA000400000EB800040002F4908602F4800886A
:101CB000FEF730FB06460022274BFEF74AFA0446A1
:101CC0000022264BFEF7B7FA294A03C229480088AA
:101CD00000EB400000EB80004000274908602148ED
:101CE0000088FEF717FB064600224FF08043FEF700
:101CF00030FA04460022194BFEF79DFA1F4A03C230
:101D00001C480088FEF706FB064600221C4BFEF727
:101D100020FA04460022114BFEF78DFA194A03C23D
:101D2000134803C8CDE90001134803680E4816A103
:101D300002681E4800F036FD1C48FEF703FA401CFE
:101D400084B24FF47A73224618491948FFF7DAFE35
:101D5000BDE8FC813E000020008051400088C34067
:101D60000000002040000020200000203C00002057
:101D70000800002042000020240000201000002065
:101D80000000084018000020247031203D20256408
:101D90002050612C207032203D2025642050612C81
:101DA0002074203D20256620432A000018010020D1
:101DB000D800002000B585B000BF2448806940F0FD
:101DC0001000224988610846806900F010000090E8
:101DD00000BF00BF00BF0846806940F02000886156
:101DE0000846806900F02000009000BF00BF00BFDF
:101DF0000846806940F0080088610846806900F064
:101E00000800009000BF00BF00BF0846806940F096
:101E1000040088610846806900F00400009000BF5B
:101E200000BF002289150A48FEF72CFE4FF480708F
:101E3000019001200290002003900220049001A94B
:101E40000348FEF791FC05B000BD00000010024001
:101E50000008014000B587B01A481B4908604FF4DC
:101E6000E150486000211848816042F21071C16061
:101E70000021016141618161FFF7D2FA20B140F296
:101E8000351112A000F08CFC4FF48050039003A990
:101E90000D48FFF710FB20B140F23B110BA000F002
:101EA0007FFC202001900020029001A90648FFF746
:101EB00086FA20B14FF4A17104A000F071FC07B0C4
:101EC00000BD0000002C0140580000202E2E2F5392
:101ED00072632F6D61696E2E6300000010B50E48AD
:101EE0000E4908604FF41650486000210B4881608D
:101EF0004FF40051C160002101610C2141610021BA
:101F00008161C161FFF7E8FC20B140F2551104A0E6
:101F100000F046FC10BD0000003801409800002091
:101F20002E2E2F5372632F6D61696E2E6300000099
:101F300010B50C480C4908604FF4E13048600021AE
:101F400009488160C16001610C214161002181610A
:101F5000C161FFF7C1FC20B14FF4B47103A000F0E0
:101F60001FFC10BD00480040D80000202E2E2F532B
:101F700072632F6D61696E2E6300000000BFFEE783
:101F80007047000002480068C0F30220704700005C
:101F90000CED00E010B5002807DA0A07140E054A18
:101FA00000F00F031B1FD45403E00A07130E024A6C
:101FB000135410BD18ED00E000E400E008B5012363
:101FC0001A4669462E48FFF72DFD002857D19DF887
:101FD0000000572853D101230A222A492848FFF735
:101FE00021FD00284BD1274800783A283ED12548CA
:101FF000007A01281CD124480078C8B90120224960
:10200000087022481F490A6802604A6842600989CC
:102010000181C07800061D49097940EA01401B4949
:10202000497940EA0120194989790843184908602B
:102030001448007A20B901F0D9FB00201249087039
:102040001048007A02280AD101231A460E490C488A
:10205000FFF758FD0C480078401C0B4908700948F0
:10206000007A03280BD101F01FF808E0054800783A
:102070000849087003484078487001F0F1FA08BD3B
:10208000D800002098010020300000208E010020A0
:102090002C000020280000207047000008B50849E7
:1020A0000968C9084FF47A72B1FBF2F1414300911B
:1020B00000BF00BF00994A1E00920029F9D108BD57
:1020C00048000020704710B5FEF7E8FCFFF771F9F3
:1020D00010BD000010B590B00220069001200A90BB
:1020E00010200B9002200D9000210E914FF46011F2
:1020F0000F9106A8FEF70EFF20B14FF4847115A0D2
:1021000000F04EFB0F20019002200290002003906F
:102110004FF48060049000200590022101A8FEF792
:10212000B7FD20B14FF48B710AA000F039FBFEF728
:1021300081FE4FF47A71B0FBF1F42046FFF71FF9EE
:102140000420FFF707F900221146501EFEF74DFD4F
:1021500010B010BD2E2E2F5372632F6D61696E2E3D
:10216000630000001148006840F001000F4908605A
:10217000084640680E4908400C4948600846006817
:102180000C490840094908600846006820F480208E
:1021900008600846406820F4FE0048604FF41F00C5
:1021A0008860C803044908607047000000100240BE
:1021B0000000FFF8FFFFF6FE08ED00E010B5024852
:1021C000FFF713FA10BD000058000020002202683B
:1021D000184B984208D0B0F1804F05D0164B98426A
:1021E00002D0164B984203D122F070024B681A437A
:1021F000104B984208D0B0F1804F05D00E4B98425A
:1022000002D00E4B984203D122F44072CB681A439D
:1022100022F080024B691A4302608B68C3620B682C
:102220008362044B984201D10B690363012343612C
:1022300070470000002C01400004004000080040EE
:1022400030B50C460021816821F47F4142EA032524
:1022500025432943816030BD0A460021816821F071
:10226000700142F0070319438160704730B50B4697
:10227000144600210022026A056A25F00105056264
:10228000816921F0F00141EA041122F00A021A43A7
:102290008161026230BD30B50B4614460021002238
:1022A000056A25F0100505628169026A21F4704112
:1022B00041EA043122F0A00242EA03128161026283
:1022C00030BD000010B5FEF7E3FB0446054800688A
:1022D000201A032801D900F007F8FFF76FFE01F07C
:1022E00005F810BD3800002010B501221102324857
:1022F000FEF7C8FB1E23082230493148FFF702FCD5
:1023000008B100F0ABFF00224FF480712A48FEF7BD
:10231000B9FB642309222B492948FFF783FB08B145
:1023200000F09CFF274880792649497940EA01203E
:1023300025490880234800792249C97840EA0120CC
:10234000224908801420FEF7FBF9012211021A48E5
:10235000FEF798FB1E2308221D491948FFF7D2FB00
:1023600008B100F07BFF00224FF480711248FEF7A5
:1023700089FB6423092217491148FFF753FB08B171
:1023800000F06CFF134880791249497940EA012036
:10239000114908800F4800790E49C97840EA0120A8
:1023A0000E4908801420FEF7CBF9FFF765FCFEF715
:1023B0006FFB0B49086010BD000801406039000840
:1023C000980000207C0100203E00002040000020FA
:1023D00068390008850100203C00002042000020F0
:1023E0003800002070B505466C6A0020E085E08466
:1023F0002046FFF7C9F970BD0168C96821F49071E2
:102400000268D1600168496921F0010102685161E7
:10241000202180F83A10704710B504462068C06843
:1024200020F040002168C860202084F83900204650
:10243000FFF7D3FB002010BD70B5044694F83A00B6
:1024400022284AD1A068B0F5805F13D1A56A20691F
:1024500040B920684068C0F308002880A06A801C4A
:10246000A06219E020684068C0B22880A06A401CC1
:10247000A06211E0206938B920684068C1B2A26A40
:10248000501CA062117007E02068406800F07F01D6
:10249000A26A501CA0621170E08D401E80B2E085DF
:1024A000C8B92068C06820F020002168C860206892
:1024B000C06820F480702168C8602068406920F0FE
:1024C000010021684861202084F83A002046FFF787
:1024D00018FB002070BD0020FCE70220FAE7000096
:1024E0002DE9F041044600252068006920F44050A1
:1024F000E1680843216808612169A06808436169AF
:10250000084305432068C06841F20C6188432843B2
:102510002168C8602068406920F44070A1690843C0
:10252000216848615F49206888425CD1FEF798FCC9
:1025300000EBC00101EB001061688900B0FBF1F60F
:10254000FEF78EFC00EBC00101EB00106168890012
:10255000B0FBF1F06421B0FBF1F000EBC00101EB46
:102560000010A6EB8000322101EB00106421B0FBCB
:10257000F1F000F0F006FEF773FC00EBC00101EB98
:10258000001061688900B0FBF1F06421B0FBF1F04C
:1025900006EB0016FEF764FC00EBC00101EB001037
:1025A00061688900B0FBF1F7FEF75AFC00EBC0014F
:1025B00001EB001061688900B0FBF1F06421B0FB11
:1025C000F1F000EBC00101EB0010A7EB800032211D
:1025D00001EB00106421B0FBF1F000F00F0030447B
:1025E000216888605BE0FEF72BFC00EBC00101EB8B
:1025F000001061688900B0FBF1F6FEF721FC00EBEA
:10260000C00101EB001061688900B0FBF1F06421AA
:10261000B0FBF1F000EBC00101EB0010A6EB800075
:10262000322101EB00106421B0FBF1F000F0F00664
:10263000FEF706FC00EBC00101EB001061688900A9
:10264000B0FBF1F06421B0FBF1F006EB0016FEF7F1
:10265000F7FB00EBC00101EB001061688900B0FBE3
:10266000F1F7FEF7EDFB00EBC00101EB0010616834
:102670008900B0FBF1F06421B0FBF1F000EBC00188
:1026800001EB0010A7EB8000322101EB0010642168
:10269000B0FBF1F000F00F00304421688860BDE825
:1026A000F081000000380140014691F839002128EE
:1026B0002CD18868B0F5805F0FD10A6A1088C0F30A
:1026C00008000B685860086918B9086A801C08621D
:1026D00009E0086A401C086205E00B6A581C0862A1
:1026E00018780B685860C88C401E80B2C88458B9EE
:1026F0000868C06820F080000B68D8600868C0686F
:1027000040F040000B68D860002070470220FCE7D2
:102710002DE9F04104460D4617469846069E21E0F5
:10272000701CF8B12EB1FEF7B3F9A0EB0800B0426F
:1027300018D92068C06820F4D0702168C86020686B
:10274000406920F0010021684861202084F83900A8
:1027500084F83A0000BF002084F8380000BF03204E
:10276000BDE8F081206800682840A84201D101201E
:1027700000E00020B842D3D00020F1E710B50248B5
:10278000FFF704F810BD00009800002010B50248C3
:10279000FEF7FCFF10BD0000D800002000BFFEE7E0
:1027A00000BFFEE70FB4084B10B504A902AA0398B6
:1027B00000F0DEF8044602A9002000F070FC20467C
:1027C00010BC5DF814FB00009F30000802E008C850
:1027D000121F08C1002AFAD170477047002001E09B
:1027E00001C1121F002AFBD1704700002DE9FF5FD5
:1027F00082B00021DDE90430020DDDF840B0034372
:1028000018D044F61050A2F2FF324243151411982A
:1028100001281FD0A5EB0B00401C5FEA000A4FF017
:1028200000064E4FDFF83891B046504615D5CAF134
:10283000000413E0119801244AA3012801D16FEA92
:102840000B010298119AC0E90031C0E9024206B0BA
:10285000BDE8F09FCBF10000DFE704460021404ACD
:10286000491842EB0450CDE9001012E0E00707D010
:1028700032463B4640464946FDF76BFC804689465A
:1028800032463B4610461946FDF763FC06460F46A6
:102890006410002CEAD1DDE90401DDE90023BAF17E
:1028A000000F06DAFDF755FC42464B46FDF751FC9A
:1028B00005E0FDF7C0FC42464B46FDF7BCFC044674
:1028C0000E460022284BFDF795FE03D84FF0FF304F
:1028D000014607E00022254B20463146FDF7CBFD9F
:1028E000FDF770FE102409E0002C0ADB0A22002309
:1028F000FDF733FD039B30321A55641E50EA010286
:10290000F2D1641C039AC4F111031444119A012AF0
:1029100003D0012208430DD10AE0084304D000206F
:102920004FF0110B119072E7A3EB0B056D1E0DE03C
:102930005B4504DD4FF0000205F1010504E003DA18
:102940004FF00002A5F10105002AECD00298119980
:10295000C0E90231C0E9004579E7000000001440F9
:102960000000F03F300000000000F0430000E03FB6
:102970002DE9FF4F95B09B468946064600250FE29C
:10298000252877D100242746F84A0121059400E044
:10299000044316F8013F203B01FA03F01042F7D13F
:1029A00030782A2811D06FF02F033078A0F1300250
:1029B000092A16D8059A44F0020402EB820203EBBE
:1029C00042021044761C0590EFE759F8042B05925B
:1029D000002A03DA504244F40054059044F0020403
:1029E000761C30782E2816D116F8010F44F0040416
:1029F0002A280DD06FF02F023078A0F13003092B78
:102A000009D807EB870302EB4303C718761CF3E7EB
:102A100059F8047B761C30786C280FD006DC4C28E3
:102A200017D068280DD06A2814D104E0742810D07B
:102A30007A280FD10DE044F400140AE044F4801425
:102A400001E044F440147278824202D104F580140B
:102A5000761C761C307866280BD013DC582877D08B
:102A600009DC002875D04528F6D04628F4D0472840
:102A70001AD19DE118E0632835D0642879D0652803
:102A800012D195E1702873D008DC6728F1D069284D
:102A90006FD06E280DD06F2806D1B5E073282CD0EA
:102AA000752875D0782874D05A46179990476D1CB0
:102AB00075E1C4F30250022809D003280DD0D9F8DB
:102AC000001004280DD00D6009F1040967E1D9F860
:102AD0000010EA17C1E90052F6E7D9F800100D809E
:102AE000F2E70D70F0E719F8041B8DF800100020D4
:102AF0008DF80100EA46012003E059F804AB4FF0DD
:102B0000FF3061074FF0000102D40DE008F1010130
:102B10008846B9420FDA8045F8DB1AF80810002918
:102B2000F4D108E008F1010188468142FADB1AF885
:102B300008100029F6D105985B46A0EB080721464E
:102B40003846179A00F094FA284400EB080507E08D
:102B50004DE029E10DE01AF8010B5A46179990470C
:102B6000B8F10108F7D25B4621463846179A13E1BF
:102B700042E00A220092C4F302524FF0000A022AF5
:102B800008D059F804CB032A4FEAEC710AD00DE0C3
:102B900029E02AE009F1070121F00702F2E802C169
:102BA000914609E00FFA8CFC4FEAEC71042A03D13C
:102BB0004FFA8CFC4FEAEC71002907DA0A46002133
:102BC000DCF1000C61EB02012D2202E0220504D5AC
:102BD0002B228DF80420012203E0E20701D02022FD
:102BE000F7E7904659E00A2102E010220DE010219B
:102BF0004FF0000A00910BE010224FF0000A44F061
:102C000004040827009203E008224FF0000A009213
:102C1000C4F30252022A05D059F804CB0021032A3A
:102C200008D009E009F1070121F00702F2E802C12A
:102C3000914605E01FFA8CFC042A01D10CF0FF0C30
:102C40004FF00008220728D5702806D0009B83F09B
:102C5000100353EA0A0305D00EE040228DF8042049
:102C6000012208E05CEA010206D030228DF804203F
:102C70008DF8050002229046009B83F0080353EA7A
:102C80000A030AD15CEA010201D1620705D53022AC
:102C90008DF804204FF001087F1E582804D034A07E
:102CA00003900EA802900DE036A0F9E75346604667
:102CB000009AFDF752FB84460398825C0298401EFE
:102CC000029002705CEA0100F0D1029806A9081A8D
:102CD00000F1200A600702D524F4803400E00127C7
:102CE000574502DDA7EB0A0000E0002000EB0A01D7
:102CF000009005984144401A0590E00306D45B46D5
:102D00002146179A059800F0B3F90544002706E01C
:102D100001A85A46C05D179990476D1C7F1C474516
:102D2000F6DBE0030CD55B462146179A059800F0C8
:102D30009FF9054404E030205A46179990476D1CCE
:102D40000099481E00900029F5DC08E002980299DD
:102D50005A460078491C0291179990476D1CBAF1A8
:102D60000001AAF1010AF1DC65E100000928010077
:102D700030313233343536373839616263646566F1
:102D800000000000303132333435363738394142B3
:102D9000434445460000000000F058F90544761C05
:102DA000307800287FF4ECAD19B02846BDE8F08FEC
:102DB000620700D4062709F1070222F0070CFCE89D
:102DC0000223E14603F000485FEA080C02D00FF24C
:102DD000702C0DE05FEA045C02D50FF2682C07E06E
:102DE0005FEAC47C02D00FF2602C01E0AFF2700CFD
:102DF0004FF0FF3823F00043CDF850C065280CD0C9
:102E000006DC452809D046281DD047283DD13DE0A5
:102E1000662818D067287ED138E00021112F01DB09
:102E2000112000E0781CCDE9000106A90EA8FFF7EB
:102E3000DDFCDDE90F010E9A03910021009207F1FC
:102E4000010A04914DE04FF000400097CDE90110D8
:102E500006A90EA8FFF7CAFCDDE90F0203920E9B3C
:102E600011990022DDF80CA00093049211B9791C8D
:102E700000EB010AB7EB0A0004D4C0F1FF3007F100
:102E8000010A0490AAEB0700019044E0012F00DA48
:102E900001270021112F01DD112000E03846CDE986
:102EA000000106A90EA8FFF7A1FCDDE90F010E9AAB
:102EB0000391002104910092BA4621070CD4039992
:102EC000514500DA8A46BAF1010F05DD009AAAF1F0
:102ED0000101515C302908D0B84202DA10F1040F28
:102EE00006DA0121CDE9011015E0AAF10101E9E7B7
:102EF000002805DC049901440491AAEB000102E0DA
:102F0000411C514500DD8A460499401A401C01903D
:102F10004FF000400290200704D40198504501DB97
:102F2000CDF8048000208DF84F0002980DF14F0776
:102F3000B0F1004F25D02B200E9002984FF00208E0
:102F400000280CDA404202902D200E9007E00A2162
:102F50000298FDF7ECF93031029007F8011DB8F145
:102F60000001A8F10108F2DC02980028EFD1791ED7
:102F70000E980870307800F0200040F0450007F807
:102F8000020D12A8C01B00F107081498007800B1C8
:102F9000012000EB0A01019801EBE0710598414422
:102FA000401A401E0590E00306D45B462146179A5E
:102FB000059800F05DF805441498007818B15A4659
:102FC000179990476D1CE00324D55B462146179A5C
:102FD000059800F04DF805441CE00498002807DB34
:102FE000DDE90301884203DD0098405C179901E0A8
:102FF000179930205A469047049805F10105401C66
:1030000004900198401E019004D12E205A46179931
:1030100090476D1CBAF10001AAF1010ADDDC05E060
:1030200017F8010B5A46179990476D1CB8F100012B
:10303000A8F10108F4DC5B462146179A0598ABE637
:103040002D0000002B000000200000002DE9F041C1
:10305000044600251E461746880404D405E0394678
:103060002020B0476D1C641EF9D52846BDE8F081CC
:103070002DE9F041044600251E469046C80301D5BF
:10308000302700E02027880404D505E04146384673
:10309000B0476D1C641EF9D52846BDE8F0810A686A
:1030A000531C0B60107070470EB500224021284859
:1030B000FDF7E8FC002280212548FDF7E3FC002213
:1030C0004FF400612248FDF7DDFC00224FF48051EF
:1030D0002048FDF7D7FC0122D1031E48FDF7D2FCA2
:1030E000012210211B48FDF7CDFC012202211948C5
:1030F000FDF7C8FC012204211648FDF7C3FC00229D
:103100004FF400711448FDF7BDFC00224021124825
:10311000FDF7B8FC002240210E48FDF7B3FC00206B
:103120000E4908700E4908700E4A07CA8DE807005C
:1031300000F0B6FB0C480168009141680191007AEB
:103140008DF80800029A009800F0AAFB0EBD00005E
:1031500000080140000C0140001001403100002037
:10316000300000207C0100208501002010B532488D
:103170000068324988423CD22F4800683049884272
:1031800037D9304800682D49884232D22D4800682E
:103190002B4988422DD900224FF480512A48FDF74F
:1031A00071FC012204212848FDF76CFC00224FF439
:1031B00000712648FDF766FC002240212348FDF7F8
:1031C00061FC012240212048FDF75CFC204800788A
:1031D000401C1F49087008460078052809D10022C4
:1031E00040211948FDF74EFC1A480078401C194947
:1031F000087011480068184988421CD211480068BC
:10320000884218D2012211030F48FDF73BFC00222F
:1032100004210D48FDF736FC012251020B48FDF751
:1032200031FC012240210948FDF72CFC00224021FD
:103230000548FDF727FC10BD2000002061180300A1
:10324000D116030024000020000C014000100140B2
:103250003100002030000020958C010070470000F4
:1032600010B509480068094988420BD900F0BEFA38
:103270000123182206A10F48FEF744FC4FF4FA6020
:10328000FDF75EFA10BD0000240000209DA204009E
:1032900045585452454D452053544F502C20537996
:1032A0007374656D2044656C61792032206D696EA0
:1032B00000000000D8000020FDF7FCFBFEF70AFF2D
:1032C000FEF778FDFEF70AFEFEF7C4FDFEF730FEBE
:1032D000FEF786FC00F08AFA0348FEF7DDF801E00D
:1032E000FEF7F0FFFCE700005800002010B5FFF7E4
:1032F000B7FFCD48007801287ED1CC48407801281E
:1033000004D0022821D0032860D13EE000224021D1
:10331000C748FDF7B7FB01228021C548FDF7B2FB86
:103320000122D102C248FDF7ADFB0122D103C14801
:10333000FDF7A8FB00221021BE48FDF7A3FB0022E9
:103340000221BC48FDF79EFB00BF01224021B84886
:10335000FDF798FB00228021B548FDF793FB012281
:10336000D102B348FDF78EFB00224FF40041B14873
:10337000FDF788FB01221021AE48FDF783FB0022F8
:103380000221AC48FDF77EFB00BF01224021A84886
:10339000FDF778FB01228021A548FDF773FB002291
:1033A0004FF40061A248FDF76DFB00224FF400418D
:1033B000A048FDF767FB002210219E48FDF762FB45
:1033C000012202219B48FDF75DFB00BF0122402145
:1033D0009748FDF757FB012280219548FDF752FBE6
:1033E0000122D1029248FDF74DFB00224FF400412B
:1033F0009048FDF747FB00E00DE0002210218D48CA
:10340000FDF740FB002202218A48FDF73BFB00BF8D
:1034100000BFFFF7ABFE8448007802287ED18648C3
:10342000006842F65D01884279D28348006842F222
:10343000CD61884273D981480068B0F5235F6ED8AA
:103440007E48006842F269618842F3D90022402137
:103450007848FDF717FB012211037648FDF712FBB0
:10346000002204217348FDF70DFB704840780128C5
:1034700004D0022821D0032863D13EE0002240215D
:103480006B48FDF7FFFA012280216948FDF7FAFA3F
:103490000122D1026648FDF7F5FA0122D103654801
:1034A000FDF7F0FA002210216248FDF7EBFA002246
:1034B00002216048FDF7E6FA00BF012240215C4886
:1034C000FDF7E0FA002280215948FDF7DBFA0122DE
:1034D000D1025748FDF7D6FA00224FF40041554873
:1034E000FDF7D0FA012210215248FDF7CBFA002255
:1034F00002215048FDF7C6FA00BF012240214C4886
:10350000FDF7C0FA012280214948FDF7BBFA0022ED
:103510004FF400614648FDF7B5FA01E028E017E0F6
:1035200000224FF400414348FDF7ACFA002210217D
:103530004048FDF7A7FA012202213E48FDF7A2FA12
:1035400000BF00BF38480078401C374908700FE0C2
:10355000012240213748FDF795FA00224FF48051AF
:103560003448FDF78FFA012204213248FDF78AFA28
:103570002D480078032836D12F4800683049096863
:10358000401AC82806D32E4800682B490968401AFB
:10359000C8281DD92948006829490968401AC8283F
:1035A00006D32648006826490968401AC8280FD95A
:1035B000012240212348FDF765FA012251022148EA
:1035C000FDF760FA18480078401C174908700AE0B7
:1035D00000224FF400711B48FDF754FA00224021ED
:1035E0001848FDF74FFA1048007804281BD11248FC
:1035F00000681549884216D20F480068134988426E
:1036000011D90E480068104988420CD20B48006856
:103610000E49884207D900F059F901230B220CA169
:103620000E48FEF76FFA10BD300000208E0100201A
:1036300000080140000C0140200000202400002070
:103640002C00002000100140958C0100058B01002A
:1036500050726F6365737320656E6400D80000203C
:1036600010B55E480078002872D05C4800780A28BF
:1036700022D2DFE800F0B06E8B9E05223EB0B05B38
:103680005648407801280AD1012240215448FDF7CC
:10369000F9F900224FF400415248FDF7F3F94F4881
:1036A000407848B9002240214D48FDF7EBF901224E
:1036B000D1034C48FDF7E6F98DE0484840780128F1
:1036C00009D1012280214648FDF7DCF900221021B2
:1036D0004448FDF7D7F94148407848B90022802195
:1036E0003F48FDF7CFF9012210213E48FDF7CAF906
:1036F00071E03A484078012809D10122C1023848D6
:10370000FDF7C0F9002202213648FDF7BBF9334826
:10371000407850B900224FF400613148FDF7B2F90A
:10372000012202212F48FDF7ADF954E02B484078E3
:10373000012804D1012240212A48FDF7A3F9274896
:10374000407820B9002240212648FDF79BF942E04D
:1037500042E022484078012809D101220103214892
:10376000FDF790F9002204211E48FDF78BF91B4854
:10377000407850B900224FF480511A48FDF782F981
:10378000012204211748FDF77DF924E01348407811
:10379000012804D1012241021348FDF773F90F48B3
:1037A000407828B900224FF400710F48FDF76AF9FC
:1037B00011E00A484078012804D1012240210A483A
:1037C000FDF760F90548407820B9002240210648FD
:1037D000FDF758F900BF00BF10BD00002800002011
:1037E00000080140000C01400010014010B501220A
:1037F00040212248FDF746F9012280211F48FDF7AC
:1038000041F90122D1021D48FDF73CF900224FF495
:1038100080511B48FDF736F900224FF4004118484B
:10382000FDF730F9002210211548FDF72BF9002291
:1038300002211348FDF726F9012204211048FDF763
:1038400021F900224FF400710E48FDF71BF9002208
:1038500040210C48FDF716F9002240210848FDF7E9
:1038600011F901230B2208A10A48FEF74BF90020A9
:10387000094908700949087010BD0000000801409E
:10388000000C01400010014053595354454D205342
:10389000544F5000D800002031000020300000209C
:1038A00007B500208DF800008DF801008DF80200AA
:1038B0008DF803008DF804008DF805008DF80600E2
:1038C0008DF807008DF808000EBD000010B501222C
:1038D00040211E48FDF7D6F8012280211B48FDF744
:1038E000D1F80122D1021948FDF7CCF801221103C9
:1038F0001748FDF7C7F800224FF400411448FDF7C0
:10390000C1F8002210211248FDF7BCF80022022164
:103910000F48FDF7B7F8002204210D48FDF7B2F873
:10392000012251020B48FDF7ADF801224021094860
:10393000FDF7A8F8002240210548FDF7A3F8002074
:10394000054908700549087010BD000000080140D5
:10395000000C014000100140310000203000002028
:10396000F0040000000264EADE040000000262A429
:10397000000000000000000001020304060708091F
:103980000000000001020304A83900080000002024
:1039900058000000CC270008003A0008580000201A
:1039A00050050000DC2700080000000000000000B7
:1039B0000000000000000000000000000000000007
:1039C00000000000000000000000000000000000F7
:1039D00000000000000000000000000000000000E7
:1039E00000000000000000000000000000000000D7
:1039F00000A24A04000000001000000001000000C6
:04000005080000ED02
:00000001FF
